:020000040800F2
:1000000060060020D1010008D9010008DB010008CA
:10001000DD010008DF010008E10100080000000028
:10002000000000000000000000000000E3010008E4
:10003000E501000800000000E7010008E9010008F0
:10004000EB010008EB010008EB010008EB010008E0
:10005000EB010008EB010008EB010008EB010008D0
:10006000EB010008EB010008EB010008EB010008C0
:10007000EB010008EB010008EB010008EB010008B0
:10008000EB010008EB0100088D020008EB010008FD
:10009000EB010008EB010008EB010008EB01000890
:1000A000EB010008EB010008EB010008EB01000880
:1000B000EB01000849040008EB010008EB0100080F
:1000C000EB010008EB010008EB010008EB01000860
:1000D000EB010008EB010008EB010008EB01000850
:1000E000EB010008EB010008EB0100080000000034
:1000F0000000000000000000000000000000000000
:100100000000000000000000EB010008EB01000807
:10011000EB010008EB010008EB010008EB0100080F
:10012000EB010008EB010008EB010008EB010008FF
:10013000EB010008EB010008EB010008EB010008EF
:10014000EB010008EB010008EB010008EB010008DF
:1001500000F002F800F02CF80AA090E8000C8244AD
:100160008344AAF10107DA4501D100F021F8AFF28A
:10017000090EBAE80F0013F0010F18BFFB1A43F085
:10018000010318473C0400004C0400000023002435
:1001900000250026103A28BF78C1FBD8520728BF97
:1001A00030C148BF0B6070471FB51FBD10B510BDF3
:1001B00000F031F81146FFF7F7FF00F057F900F0B3
:1001C0004FF803B4FFF7F2FF03BC00F057F800004C
:1001D0000948804709480047FEE7FEE7FEE7FEE7DB
:1001E000FEE7FEE7FEE7FEE7FEE7FEE70448054917
:1001F000054A064B70470000DD0300085101000866
:1002000060000020600600206002002060020020E4
:10021000704770477047754600F02CF8AE460500F1
:100220006946534620F00700854618B020B5FFF711
:10023000DDFFBDE820404FF000064FF000074FF013
:1002400000084FF0000B21F00701AC46ACE8C009F4
:10025000ACE8C009ACE8C009ACE8C0098D467047FD
:1002600010B50446AFF300802046BDE81040FFF70C
:10027000A8BF000000487047000000200149182076
:10028000ABBEFEE726000200704700000848006889
:100290004FF6FF7148400649086006480068064965
:1002A0000860081F006840F00100091F08607047DF
:1002B0000C1801404C2401400874004010B500F0B7
:1002C00001F810BD0CB50020019000903F48006877
:1002D00040F480303D49086000BF3C48006800F4AD
:1002E000003000900198401C0190009818B90198C6
:1002F000B0F5A06FF1D13548006800F4003010B1BE
:100300000120009001E000200090009801285CD1BD
:100310002F48006840F010002D490860084600682A
:1003200020F0030008600846006840F00200086002
:1003300026484068254948600846406848600846A5
:10034000406840F4806048600846C06A214908401F
:100350001E49C8620846C06A1F4908431B49C86253
:100360000846006840F08060086000BF17480068D9
:1003700000F000600028F9D01448406820F47C1098
:10038000124948600846406840F4E8104860084652
:10039000006840F08070086000BF0C48006800F002
:1003A00000700028F9D00948406820F00300074990
:1003B00048600846406840F00200486000BF0348BB
:1003C000406800F00C000828F9D10CBD0010024074
:1003D0000020024000F0FEFF4406010010B5164860
:1003E000006840F00100144908600846406813495D
:1003F00008401149486008460068114908400E4904
:1004000008600846006820F48020086008464068BC
:1004100020F4FE0048600846006820F0A050086004
:100420004FF47F0088600020C862FFF747FF4FF05D
:1004300000600449086010BD001002400000FFF099
:10044000FFFFF6FE08ED00E00648006840F00100FE
:10045000044908600448008820F00100024908802F
:100460007047000008240140100400404C48806997
:1004700040F040004A4988610846C06940F00200E7
:10048000C8614FF01130474908604748006840F4A0
:100490008030454908604548006820F47020434991
:1004A00008601720424908809520091D08804048AF
:1004B0001C38008840F001003D491C3908803C4848
:1004C0002838008840F0010039492839088034482C
:1004D000806940F40070324988610846C06940F084
:1004E0000050C8610846406840F4004048600E2053
:1004F000304908602F482C38006840F460202D49AE
:100500002C3908600846006840F480100860081F15
:10051000006840F02000091F08602748006840F488
:1005200080204FF0E021C1F8000122482C380068FB
:1005300040F001001F492C3908604FF0E020D0F84E
:10054000000140F000504FF0E021C1F800011948CF
:100550002C38006840F0080016492C39086000BFAC
:1005600014482C38006800F008000028F8D1114821
:100570002C38006840F004000E492C39086000BF98
:100580000C482C38006800F004000028F8D10B4813
:10059000006840F039000949086000BFFEE700002C
:1005A0000010024004180140000801400010014002
:1005B000280400403424014000E100E000740040C1
:1005C000D005000800000020600600008C01000833
:04000005080001D11D
:00000001FF
